{
  "_format": "hh-sol-artifact-1",
  "contractName": "FixedStakeRate",
  "sourceName": "contracts/FixedStakeRate.sol",
  "abi": [
    {
      "inputs": [
        {
          "internalType": "address",
          "name": "_addressProvider",
          "type": "address"
        }
      ],
      "stateMutability": "nonpayable",
      "type": "constructor"
    },
    {
      "inputs": [],
      "name": "ADDRESSES_PROVIDER",
      "outputs": [
        {
          "internalType": "contract IPoolAddressesProvider",
          "name": "",
          "type": "address"
        }
      ],
      "stateMutability": "view",
      "type": "function"
    },
    {
      "inputs": [],
      "name": "POOL",
      "outputs": [
        {
          "internalType": "contract IPool",
          "name": "",
          "type": "address"
        }
      ],
      "stateMutability": "view",
      "type": "function"
    },
    {
      "inputs": [],
      "name": "dev_lastSwapWstEth",
      "outputs": [
        {
          "internalType": "uint256",
          "name": "",
          "type": "uint256"
        }
      ],
      "stateMutability": "view",
      "type": "function"
    },
    {
      "inputs": [],
      "name": "dev_revertSwap",
      "outputs": [
        {
          "internalType": "uint256",
          "name": "amountOut",
          "type": "uint256"
        }
      ],
      "stateMutability": "nonpayable",
      "type": "function"
    },
    {
      "inputs": [
        {
          "internalType": "address",
          "name": "asset",
          "type": "address"
        },
        {
          "internalType": "uint256",
          "name": "amount",
          "type": "uint256"
        },
        {
          "internalType": "uint256",
          "name": "premium",
          "type": "uint256"
        },
        {
          "internalType": "address",
          "name": "initiator",
          "type": "address"
        },
        {
          "internalType": "bytes",
          "name": "params",
          "type": "bytes"
        }
      ],
      "name": "executeOperation",
      "outputs": [
        {
          "internalType": "bool",
          "name": "",
          "type": "bool"
        }
      ],
      "stateMutability": "nonpayable",
      "type": "function"
    },
    {
      "inputs": [
        {
          "internalType": "address",
          "name": "_tokenAddress",
          "type": "address"
        }
      ],
      "name": "getBalance",
      "outputs": [
        {
          "internalType": "uint256",
          "name": "",
          "type": "uint256"
        }
      ],
      "stateMutability": "view",
      "type": "function"
    },
    {
      "inputs": [],
      "name": "iporRouter",
      "outputs": [
        {
          "internalType": "address",
          "name": "",
          "type": "address"
        }
      ],
      "stateMutability": "view",
      "type": "function"
    },
    {
      "inputs": [],
      "name": "iporSwapService",
      "outputs": [
        {
          "internalType": "contract IAmmOpenSwapServiceStEth",
          "name": "",
          "type": "address"
        }
      ],
      "stateMutability": "view",
      "type": "function"
    },
    {
      "inputs": [
        {
          "internalType": "uint256",
          "name": "_amount",
          "type": "uint256"
        },
        {
          "components": [
            {
              "internalType": "uint256",
              "name": "maxCollateralRatio",
              "type": "uint256"
            },
            {
              "internalType": "uint256",
              "name": "maxCollateralRatioPerLeg",
              "type": "uint256"
            },
            {
              "internalType": "uint256",
              "name": "maxLeveragePerLeg",
              "type": "uint256"
            },
            {
              "internalType": "int256",
              "name": "baseSpreadPerLeg",
              "type": "int256"
            },
            {
              "internalType": "uint256",
              "name": "fixedRateCapPerLeg",
              "type": "uint256"
            },
            {
              "internalType": "uint256",
              "name": "demandSpreadFactor",
              "type": "uint256"
            },
            {
              "internalType": "uint256",
              "name": "expiration",
              "type": "uint256"
            },
            {
              "internalType": "bytes",
              "name": "signature",
              "type": "bytes"
            }
          ],
          "internalType": "struct RiskIndicatorsInputs",
          "name": "_riskIndicatorsInputs",
          "type": "tuple"
        }
      ],
      "name": "openPosition",
      "outputs": [],
      "stateMutability": "nonpayable",
      "type": "function"
    },
    {
      "inputs": [],
      "name": "poolFee",
      "outputs": [
        {
          "internalType": "uint24",
          "name": "",
          "type": "uint24"
        }
      ],
      "stateMutability": "view",
      "type": "function"
    },
    {
      "inputs": [],
      "name": "riskIndicatorsInputs",
      "outputs": [
        {
          "internalType": "uint256",
          "name": "maxCollateralRatio",
          "type": "uint256"
        },
        {
          "internalType": "uint256",
          "name": "maxCollateralRatioPerLeg",
          "type": "uint256"
        },
        {
          "internalType": "uint256",
          "name": "maxLeveragePerLeg",
          "type": "uint256"
        },
        {
          "internalType": "int256",
          "name": "baseSpreadPerLeg",
          "type": "int256"
        },
        {
          "internalType": "uint256",
          "name": "fixedRateCapPerLeg",
          "type": "uint256"
        },
        {
          "internalType": "uint256",
          "name": "demandSpreadFactor",
          "type": "uint256"
        },
        {
          "internalType": "uint256",
          "name": "expiration",
          "type": "uint256"
        },
        {
          "internalType": "bytes",
          "name": "signature",
          "type": "bytes"
        }
      ],
      "stateMutability": "view",
      "type": "function"
    },
    {
      "inputs": [],
      "name": "swapRouter",
      "outputs": [
        {
          "internalType": "contract ISwapRouter",
          "name": "",
          "type": "address"
        }
      ],
      "stateMutability": "view",
      "type": "function"
    },
    {
      "inputs": [
        {
          "internalType": "uint256",
          "name": "amountIn",
          "type": "uint256"
        }
      ],
      "name": "swapWEthToWstEth",
      "outputs": [
        {
          "internalType": "uint256",
          "name": "amountOut",
          "type": "uint256"
        }
      ],
      "stateMutability": "nonpayable",
      "type": "function"
    },
    {
      "inputs": [],
      "name": "uniswapSwapRouterAddress",
      "outputs": [
        {
          "internalType": "address",
          "name": "",
          "type": "address"
        }
      ],
      "stateMutability": "view",
      "type": "function"
    },
    {
      "inputs": [],
      "name": "wEthToken",
      "outputs": [
        {
          "internalType": "contract IERC20",
          "name": "",
          "type": "address"
        }
      ],
      "stateMutability": "view",
      "type": "function"
    },
    {
      "inputs": [
        {
          "internalType": "address",
          "name": "_tokenAddress",
          "type": "address"
        }
      ],
      "name": "withdraw",
      "outputs": [],
      "stateMutability": "nonpayable",
      "type": "function"
    },
    {
      "inputs": [],
      "name": "wstEthToken",
      "outputs": [
        {
          "internalType": "contract IERC20",
          "name": "",
          "type": "address"
        }
      ],
      "stateMutability": "view",
      "type": "function"
    },
    {
      "stateMutability": "payable",
      "type": "receive"
    }
  ],
  "bytecode": "0x6101006040527316d104009964e694761c0bf09d7be49b7e3c26fd73ffffffffffffffffffffffffffffffffffffffff1660c09073ffffffffffffffffffffffffffffffffffffffff1681525073e592427a0aece92de3edee1f18e0157c0586156473ffffffffffffffffffffffffffffffffffffffff1660e09073ffffffffffffffffffffffffffffffffffffffff1681525073c02aaa39b223fe8d0a0e5c4f27ead9083c756cc2600160006101000a81548173ffffffffffffffffffffffffffffffffffffffff021916908373ffffffffffffffffffffffffffffffffffffffff160217905550737f39c581f595b53c5cb19bd0b3f8da6c935e2ca0600260006101000a81548173ffffffffffffffffffffffffffffffffffffffff021916908373ffffffffffffffffffffffffffffffffffffffff1602179055503480156200014a57600080fd5b50604051620029db380380620029db8339818101604052810190620001709190620002fc565b808073ffffffffffffffffffffffffffffffffffffffff1660808173ffffffffffffffffffffffffffffffffffffffff16815250508073ffffffffffffffffffffffffffffffffffffffff1663026b1d5f6040518163ffffffff1660e01b8152600401602060405180830381865afa158015620001f1573d6000803e3d6000fd5b505050506040513d601f19601f82011682018060405250810190620002179190620002fc565b73ffffffffffffffffffffffffffffffffffffffff1660a08173ffffffffffffffffffffffffffffffffffffffff168152505050336000806101000a81548173ffffffffffffffffffffffffffffffffffffffff021916908373ffffffffffffffffffffffffffffffffffffffff160217905550506200032e565b600080fd5b600073ffffffffffffffffffffffffffffffffffffffff82169050919050565b6000620002c48262000297565b9050919050565b620002d681620002b7565b8114620002e257600080fd5b50565b600081519050620002f681620002cb565b92915050565b60006020828403121562000315576200031462000292565b5b60006200032584828501620002e5565b91505092915050565b60805160a05160c05160e051612634620003a760003960008181610cbc01528181610e0601528181610ec20152818161106701526111c20152600081816109460152610c1a01526000818161052e015281816105f701528181610687015281816107450152610bf00152600061042401526126346000f3fe6080604052600436106101025760003560e01c80638502cd5411610095578063b886fdd111610064578063b886fdd114610332578063c31c9c071461035d578063dd2fc9f914610388578063f8b2cb4f146103ba578063ff760f16146103f757610109565b80638502cd54146102745780639cb90b191461029f5780639e4aa47f146102ca578063a578b553146102f557610109565b80633580b13b116100d15780633580b13b146101ca57806351cff8d9146101f55780637535d2461461021e57806379c5c7eb1461024957610109565b80630542975c1461010e578063089fe6aa14610139578063153e2dcf146101645780631b11d0ff1461018d57610109565b3661010957005b600080fd5b34801561011a57600080fd5b50610123610422565b60405161013091906112e1565b60405180910390f35b34801561014557600080fd5b5061014e610446565b60405161015b919061131a565b60405180910390f35b34801561017057600080fd5b5061018b6004803603810190610186919061139a565b61044c565b005b34801561019957600080fd5b506101b460048036038101906101af9190611499565b6105c8565b6040516101c1919061154e565b60405180910390f35b3480156101d657600080fd5b506101df610a39565b6040516101ec919061158a565b60405180910390f35b34801561020157600080fd5b5061021c600480360381019061021791906115a5565b610a5f565b005b34801561022a57600080fd5b50610233610bee565b60405161024091906115f3565b60405180910390f35b34801561025557600080fd5b5061025e610c12565b60405161026b919061161d565b60405180910390f35b34801561028057600080fd5b50610289610c18565b6040516102969190611659565b60405180910390f35b3480156102ab57600080fd5b506102b4610c3c565b6040516102c1919061158a565b60405180910390f35b3480156102d657600080fd5b506102df610c62565b6040516102ec9190611683565b60405180910390f35b34801561030157600080fd5b5061031c6004803603810190610317919061169e565b610c7a565b604051610329919061161d565b60405180910390f35b34801561033e57600080fd5b50610347610ea8565b6040516103549190611683565b60405180910390f35b34801561036957600080fd5b50610372610ec0565b60405161037f91906116ec565b60405180910390f35b34801561039457600080fd5b5061039d610ee4565b6040516103b19897969594939291906117b9565b60405180910390f35b3480156103c657600080fd5b506103e160048036038101906103dc91906115a5565b610fa2565b6040516103ee919061161d565b60405180910390f35b34801561040357600080fd5b5061040c611025565b604051610419919061161d565b60405180910390f35b7f000000000000000000000000000000000000000000000000000000000000000081565b610bb881565b737f39c581f595b53c5cb19bd0b3f8da6c935e2ca073ffffffffffffffffffffffffffffffffffffffff166323b872dd3330856040518463ffffffff1660e01b815260040161049d9392919061183e565b6020604051808303816000875af11580156104bc573d6000803e3d6000fd5b505050506040513d601f19601f820116820180604052508101906104e091906118a1565b5080600481816104f09190611e6d565b90505060003090506000737f39c581f595b53c5cb19bd0b3f8da6c935e2ca090506000849050600060405180602001604052806000815250905060007f000000000000000000000000000000000000000000000000000000000000000073ffffffffffffffffffffffffffffffffffffffff166342b0b77c86868686866040518663ffffffff1660e01b815260040161058d959493929190611e98565b600060405180830381600087803b1580156105a757600080fd5b505af11580156105bb573d6000803e3d6000fd5b5050505050505050505050565b60008085876105d79190611f21565b90508773ffffffffffffffffffffffffffffffffffffffff1663095ea7b37f00000000000000000000000000000000000000000000000000000000000000006103e7846106249190611f77565b6040518363ffffffff1660e01b8152600401610641929190611fd1565b6020604051808303816000875af1158015610660573d6000803e3d6000fd5b505050506040513d601f19601f8201168201806040525081019061068491906118a1565b507f000000000000000000000000000000000000000000000000000000000000000073ffffffffffffffffffffffffffffffffffffffff1663617ba0378960028a6106cf9190612029565b60008054906101000a900473ffffffffffffffffffffffffffffffffffffffff1660006040518563ffffffff1660e01b815260040161071194939291906120b6565b600060405180830381600087803b15801561072b57600080fd5b505af115801561073f573d6000803e3d6000fd5b505050507f000000000000000000000000000000000000000000000000000000000000000073ffffffffffffffffffffffffffffffffffffffff1663a415bcad73c02aaa39b223fe8d0a0e5c4f27ead9083c756cc26064600a8b6107a39190611f77565b6107ad9190612029565b600260008060009054906101000a900473ffffffffffffffffffffffffffffffffffffffff166040518663ffffffff1660e01b81526004016107f3959493929190612136565b600060405180830381600087803b15801561080d57600080fd5b505af1158015610821573d6000803e3d6000fd5b505050503073ffffffffffffffffffffffffffffffffffffffff1663a578b55373c02aaa39b223fe8d0a0e5c4f27ead9083c756cc273ffffffffffffffffffffffffffffffffffffffff166370a08231306040518263ffffffff1660e01b815260040161088e9190611683565b602060405180830381865afa1580156108ab573d6000803e3d6000fd5b505050506040513d601f19601f820116820180604052508101906108cf919061219e565b6040518263ffffffff1660e01b81526004016108eb919061161d565b6020604051808303816000875af115801561090a573d6000803e3d6000fd5b505050506040513d601f19601f8201168201806040525081019061092e919061219e565b60038190555060006815af1d78b58c400000905060007f000000000000000000000000000000000000000000000000000000000000000073ffffffffffffffffffffffffffffffffffffffff1663a8e36d8560008054906101000a900473ffffffffffffffffffffffffffffffffffffffff16737f39c581f595b53c5cb19bd0b3f8da6c935e2ca067016345785d8a0000858760046040518763ffffffff1660e01b81526004016109e496959493929190612408565b6020604051808303816000875af1158015610a03573d6000803e3d6000fd5b505050506040513d601f19601f82011682018060405250810190610a27919061219e565b50600193505050509695505050505050565b600160009054906101000a900473ffffffffffffffffffffffffffffffffffffffff1681565b60008054906101000a900473ffffffffffffffffffffffffffffffffffffffff1673ffffffffffffffffffffffffffffffffffffffff163373ffffffffffffffffffffffffffffffffffffffff1614610aed576040517f08c379a0000000000000000000000000000000000000000000000000000000008152600401610ae4906124f3565b60405180910390fd5b60008190508073ffffffffffffffffffffffffffffffffffffffff1663a9059cbb338373ffffffffffffffffffffffffffffffffffffffff166370a08231306040518263ffffffff1660e01b8152600401610b489190611683565b602060405180830381865afa158015610b65573d6000803e3d6000fd5b505050506040513d601f19601f82011682018060405250810190610b89919061219e565b6040518363ffffffff1660e01b8152600401610ba6929190611fd1565b6020604051808303816000875af1158015610bc5573d6000803e3d6000fd5b505050506040513d601f19601f82011682018060405250810190610be991906118a1565b505050565b7f000000000000000000000000000000000000000000000000000000000000000081565b60035481565b7f000000000000000000000000000000000000000000000000000000000000000081565b600260009054906101000a900473ffffffffffffffffffffffffffffffffffffffff1681565b73e592427a0aece92de3edee1f18e0157c0586156481565b6000600160009054906101000a900473ffffffffffffffffffffffffffffffffffffffff1673ffffffffffffffffffffffffffffffffffffffff1663095ea7b37f0000000000000000000000000000000000000000000000000000000000000000846040518363ffffffff1660e01b8152600401610cf9929190611fd1565b6020604051808303816000875af1158015610d18573d6000803e3d6000fd5b505050506040513d601f19601f82011682018060405250810190610d3c91906118a1565b50600060405180610100016040528073c02aaa39b223fe8d0a0e5c4f27ead9083c756cc273ffffffffffffffffffffffffffffffffffffffff168152602001737f39c581f595b53c5cb19bd0b3f8da6c935e2ca073ffffffffffffffffffffffffffffffffffffffff168152602001610bb862ffffff1681526020013073ffffffffffffffffffffffffffffffffffffffff16815260200142815260200184815260200160008152602001600073ffffffffffffffffffffffffffffffffffffffff1681525090507f000000000000000000000000000000000000000000000000000000000000000073ffffffffffffffffffffffffffffffffffffffff1663414bf389826040518263ffffffff1660e01b8152600401610e5d91906125e2565b6020604051808303816000875af1158015610e7c573d6000803e3d6000fd5b505050506040513d601f19601f82011682018060405250810190610ea0919061219e565b915050919050565b7316d104009964e694761c0bf09d7be49b7e3c26fd81565b7f000000000000000000000000000000000000000000000000000000000000000081565b6004806000015490806001015490806002015490806003015490806004015490806005015490806006015490806007018054610f1f90611ad9565b80601f0160208091040260200160405190810160405280929190818152602001828054610f4b90611ad9565b8015610f985780601f10610f6d57610100808354040283529160200191610f98565b820191906000526020600020905b815481529060010190602001808311610f7b57829003601f168201915b5050505050905088565b60008173ffffffffffffffffffffffffffffffffffffffff166370a08231306040518263ffffffff1660e01b8152600401610fdd9190611683565b602060405180830381865afa158015610ffa573d6000803e3d6000fd5b505050506040513d601f19601f8201168201806040525081019061101e919061219e565b9050919050565b6000600260009054906101000a900473ffffffffffffffffffffffffffffffffffffffff1673ffffffffffffffffffffffffffffffffffffffff1663095ea7b37f00000000000000000000000000000000000000000000000000000000000000006103e76003546110969190611f77565b6040518363ffffffff1660e01b81526004016110b3929190611fd1565b6020604051808303816000875af11580156110d2573d6000803e3d6000fd5b505050506040513d601f19601f820116820180604052508101906110f691906118a1565b506000604051806101000160405280737f39c581f595b53c5cb19bd0b3f8da6c935e2ca073ffffffffffffffffffffffffffffffffffffffff16815260200173c02aaa39b223fe8d0a0e5c4f27ead9083c756cc273ffffffffffffffffffffffffffffffffffffffff168152602001610bb862ffffff1681526020013073ffffffffffffffffffffffffffffffffffffffff168152602001428152602001600354815260200160008152602001600073ffffffffffffffffffffffffffffffffffffffff1681525090507f000000000000000000000000000000000000000000000000000000000000000073ffffffffffffffffffffffffffffffffffffffff1663414bf389826040518263ffffffff1660e01b815260040161121991906125e2565b6020604051808303816000875af1158015611238573d6000803e3d6000fd5b505050506040513d601f19601f8201168201806040525081019061125c919061219e565b91505090565b600073ffffffffffffffffffffffffffffffffffffffff82169050919050565b6000819050919050565b60006112a76112a261129d84611262565b611282565b611262565b9050919050565b60006112b98261128c565b9050919050565b60006112cb826112ae565b9050919050565b6112db816112c0565b82525050565b60006020820190506112f660008301846112d2565b92915050565b600062ffffff82169050919050565b611314816112fc565b82525050565b600060208201905061132f600083018461130b565b92915050565b600080fd5b600080fd5b6000819050919050565b6113528161133f565b811461135d57600080fd5b50565b60008135905061136f81611349565b92915050565b600080fd5b6000610100828403121561139157611390611375565b5b81905092915050565b600080604083850312156113b1576113b0611335565b5b60006113bf85828601611360565b925050602083013567ffffffffffffffff8111156113e0576113df61133a565b5b6113ec8582860161137a565b9150509250929050565b600061140182611262565b9050919050565b611411816113f6565b811461141c57600080fd5b50565b60008135905061142e81611408565b92915050565b600080fd5b600080fd5b600080fd5b60008083601f84011261145957611458611434565b5b8235905067ffffffffffffffff81111561147657611475611439565b5b6020830191508360018202830111156114925761149161143e565b5b9250929050565b60008060008060008060a087890312156114b6576114b5611335565b5b60006114c489828a0161141f565b96505060206114d589828a01611360565b95505060406114e689828a01611360565b94505060606114f789828a0161141f565b935050608087013567ffffffffffffffff8111156115185761151761133a565b5b61152489828a01611443565b92509250509295509295509295565b60008115159050919050565b61154881611533565b82525050565b6000602082019050611563600083018461153f565b92915050565b6000611574826112ae565b9050919050565b61158481611569565b82525050565b600060208201905061159f600083018461157b565b92915050565b6000602082840312156115bb576115ba611335565b5b60006115c98482850161141f565b91505092915050565b60006115dd826112ae565b9050919050565b6115ed816115d2565b82525050565b600060208201905061160860008301846115e4565b92915050565b6116178161133f565b82525050565b6000602082019050611632600083018461160e565b92915050565b6000611643826112ae565b9050919050565b61165381611638565b82525050565b600060208201905061166e600083018461164a565b92915050565b61167d816113f6565b82525050565b60006020820190506116986000830184611674565b92915050565b6000602082840312156116b4576116b3611335565b5b60006116c284828501611360565b91505092915050565b60006116d6826112ae565b9050919050565b6116e6816116cb565b82525050565b600060208201905061170160008301846116dd565b92915050565b6000819050919050565b61171a81611707565b82525050565b600081519050919050565b600082825260208201905092915050565b60005b8381101561175a57808201518184015260208101905061173f565b83811115611769576000848401525b50505050565b6000601f19601f8301169050919050565b600061178b82611720565b611795818561172b565b93506117a581856020860161173c565b6117ae8161176f565b840191505092915050565b6000610100820190506117cf600083018b61160e565b6117dc602083018a61160e565b6117e9604083018961160e565b6117f66060830188611711565b611803608083018761160e565b61181060a083018661160e565b61181d60c083018561160e565b81810360e083015261182f8184611780565b90509998505050505050505050565b60006060820190506118536000830186611674565b6118606020830185611674565b61186d604083018461160e565b949350505050565b61187e81611533565b811461188957600080fd5b50565b60008151905061189b81611875565b92915050565b6000602082840312156118b7576118b6611335565b5b60006118c58482850161188c565b91505092915050565b600081356118db81611349565b80915050919050565b60008160001b9050919050565b60007fffffffffffffffffffffffffffffffffffffffffffffffffffffffffffffffff61191d846118e4565b9350801983169250808416831791505092915050565b600061194e6119496119448461133f565b611282565b61133f565b9050919050565b6000819050919050565b61196882611933565b61197b61197482611955565b83546118f1565b8255505050565b61198b81611707565b811461199657600080fd5b50565b600081356119a681611982565b80915050919050565b60006119ca6119c56119c084611707565b611282565b611707565b9050919050565b6000819050919050565b6119e4826119af565b6119f76119f0826119d1565b83546118f1565b8255505050565b600080fd5b600080fd5b600080fd5b60008083356001602003843603038112611a2a57611a296119fe565b5b80840192508235915067ffffffffffffffff821115611a4c57611a4b611a03565b5b602083019250600182023603831315611a6857611a67611a08565b5b509250929050565b600082905092915050565b7f4e487b7100000000000000000000000000000000000000000000000000000000600052604160045260246000fd5b7f4e487b7100000000000000000000000000000000000000000000000000000000600052602260045260246000fd5b60006002820490506001821680611af157607f821691505b60208210811415611b0557611b04611aaa565b5b50919050565b60008190508160005260206000209050919050565b60006020601f8301049050919050565b600082821b905092915050565b600060088302611b6d7fffffffffffffffffffffffffffffffffffffffffffffffffffffffffffffffff82611b30565b611b778683611b30565b95508019841693508086168417925050509392505050565b611b9883611933565b611bac611ba482611955565b848454611b3d565b825550505050565b600090565b611bc1611bb4565b611bcc818484611b8f565b505050565b5b81811015611bf057611be5600082611bb9565b600181019050611bd2565b5050565b601f821115611c3557611c0681611b0b565b611c0f84611b20565b81016020851015611c1e578190505b611c32611c2a85611b20565b830182611bd1565b50505b505050565b600082821c905092915050565b6000611c5860001984600802611c3a565b1980831691505092915050565b6000611c718383611c47565b9150826002028217905092915050565b611c8b8383611a70565b67ffffffffffffffff811115611ca457611ca3611a7b565b5b611cae8254611ad9565b611cb9828285611bf4565b6000601f831160018114611ce85760008415611cd6578287013590505b611ce08582611c65565b865550611d48565b601f198416611cf686611b0b565b60005b82811015611d1e57848901358255600182019150602085019450602081019050611cf9565b86831015611d3b5784890135611d37601f891682611c47565b8355505b6001600288020188555050505b50505050505050565b611d5c838383611c81565b505050565b600081016000830180611d73816118ce565b9050611d7f818461195f565b505050600181016020830180611d94816118ce565b9050611da0818461195f565b505050600281016040830180611db5816118ce565b9050611dc1818461195f565b505050600381016060830180611dd681611999565b9050611de281846119db565b505050600481016080830180611df7816118ce565b9050611e03818461195f565b5050506005810160a0830180611e18816118ce565b9050611e24818461195f565b5050506006810160c0830180611e39816118ce565b9050611e45818461195f565b5050506007810160e08301611e5a8185611a0d565b611e65818386611d51565b505050505050565b611e778282611d61565b5050565b600061ffff82169050919050565b611e9281611e7b565b82525050565b600060a082019050611ead6000830188611674565b611eba6020830187611674565b611ec7604083018661160e565b8181036060830152611ed98185611780565b9050611ee86080830184611e89565b9695505050505050565b7f4e487b7100000000000000000000000000000000000000000000000000000000600052601160045260246000fd5b6000611f2c8261133f565b9150611f378361133f565b9250827fffffffffffffffffffffffffffffffffffffffffffffffffffffffffffffffff03821115611f6c57611f6b611ef2565b5b828201905092915050565b6000611f828261133f565b9150611f8d8361133f565b9250817fffffffffffffffffffffffffffffffffffffffffffffffffffffffffffffffff0483118215151615611fc657611fc5611ef2565b5b828202905092915050565b6000604082019050611fe66000830185611674565b611ff3602083018461160e565b9392505050565b7f4e487b7100000000000000000000000000000000000000000000000000000000600052601260045260246000fd5b60006120348261133f565b915061203f8361133f565b92508261204f5761204e611ffa565b5b828204905092915050565b6000612065826112ae565b9050919050565b6120758161205a565b82525050565b6000819050919050565b60006120a061209b6120968461207b565b611282565b611e7b565b9050919050565b6120b081612085565b82525050565b60006080820190506120cb6000830187611674565b6120d8602083018661160e565b6120e5604083018561206c565b6120f260608301846120a7565b95945050505050565b6000819050919050565b600061212061211b612116846120fb565b611282565b61133f565b9050919050565b61213081612105565b82525050565b600060a08201905061214b6000830188611674565b612158602083018761160e565b6121656040830186612127565b61217260608301856120a7565b61217f608083018461206c565b9695505050505050565b60008151905061219881611349565b92915050565b6000602082840312156121b4576121b3611335565b5b60006121c284828501612189565b91505092915050565b6000819050919050565b60006121f06121eb6121e6846121cb565b611282565b61133f565b9050919050565b612200816121d5565b82525050565b60008160001c9050919050565b6000819050919050565b600061223061222b83612206565b612213565b9050919050565b6122408161133f565b82525050565b6000819050919050565b600061226361225e83612206565b612246565b9050919050565b61227381611707565b82525050565b600082825260208201905092915050565b6000815461229781611ad9565b6122a18186612279565b945060018216600081146122bc57600181146122ce57612301565b60ff1983168652602086019350612301565b6122d785611b0b565b60005b838110156122f9578154818901526001820191506020810190506122da565b808801955050505b50505092915050565b6000610100830160008084015490506123228161221d565b61232f6000870182612237565b50600184015490506123408161221d565b61234d6020870182612237565b506002840154905061235e8161221d565b61236b6040870182612237565b506003840154905061237c81612250565b612389606087018261226a565b506004840154905061239a8161221d565b6123a76080870182612237565b50600584015490506123b88161221d565b6123c560a0870182612237565b50600684015490506123d68161221d565b6123e360c0870182612237565b506007840185830360e08701526123fa838261228a565b925050819250505092915050565b600060c08201905061241d600083018961206c565b61242a6020830188611674565b61243760408301876121f7565b612444606083018661160e565b612451608083018561160e565b81810360a0830152612463818461230a565b9050979650505050505050565b600082825260208201905092915050565b7f4f6e6c792074686520636f6e7472616374206f776e65722063616e2063616c6c60008201527f20746869732066756e6374696f6e000000000000000000000000000000000000602082015250565b60006124dd602e83612470565b91506124e882612481565b604082019050919050565b6000602082019050818103600083015261250c816124d0565b9050919050565b61251c816113f6565b82525050565b61252b816112fc565b82525050565b61253a81611262565b82525050565b610100820160008201516125576000850182612513565b50602082015161256a6020850182612513565b50604082015161257d6040850182612522565b5060608201516125906060850182612513565b5060808201516125a36080850182612237565b5060a08201516125b660a0850182612237565b5060c08201516125c960c0850182612237565b5060e08201516125dc60e0850182612531565b50505050565b6000610100820190506125f86000830184612540565b9291505056fea2646970667358221220848aeebd48588d4117f2f256f11401aacf987bffb3fe631b3938e2eeb7f4fa8164736f6c634300080a0033",
  "linkReferences": {},
  "deployedLinkReferences": {}
}