{
  "_format": "hh-sol-artifact-1",
  "contractName": "FixedStakeRate",
  "sourceName": "contracts/FixedStakeRate.sol",
  "abi": [
    {
      "inputs": [
        {
          "internalType": "address",
          "name": "_addressProvider",
          "type": "address"
        }
      ],
      "stateMutability": "nonpayable",
      "type": "constructor"
    },
    {
      "inputs": [],
      "name": "ADDRESSES_PROVIDER",
      "outputs": [
        {
          "internalType": "contract IPoolAddressesProvider",
          "name": "",
          "type": "address"
        }
      ],
      "stateMutability": "view",
      "type": "function"
    },
    {
      "inputs": [],
      "name": "POOL",
      "outputs": [
        {
          "internalType": "contract IPool",
          "name": "",
          "type": "address"
        }
      ],
      "stateMutability": "view",
      "type": "function"
    },
    {
      "inputs": [],
      "name": "dev_lastSwapWstEth",
      "outputs": [
        {
          "internalType": "uint256",
          "name": "",
          "type": "uint256"
        }
      ],
      "stateMutability": "view",
      "type": "function"
    },
    {
      "inputs": [],
      "name": "dev_revertSwap",
      "outputs": [
        {
          "internalType": "uint256",
          "name": "amountOut",
          "type": "uint256"
        }
      ],
      "stateMutability": "nonpayable",
      "type": "function"
    },
    {
      "inputs": [
        {
          "internalType": "address",
          "name": "asset",
          "type": "address"
        },
        {
          "internalType": "uint256",
          "name": "amount",
          "type": "uint256"
        },
        {
          "internalType": "uint256",
          "name": "premium",
          "type": "uint256"
        },
        {
          "internalType": "address",
          "name": "initiator",
          "type": "address"
        },
        {
          "internalType": "bytes",
          "name": "params",
          "type": "bytes"
        }
      ],
      "name": "executeOperation",
      "outputs": [
        {
          "internalType": "bool",
          "name": "",
          "type": "bool"
        }
      ],
      "stateMutability": "nonpayable",
      "type": "function"
    },
    {
      "inputs": [
        {
          "internalType": "address",
          "name": "_tokenAddress",
          "type": "address"
        }
      ],
      "name": "getBalance",
      "outputs": [
        {
          "internalType": "uint256",
          "name": "",
          "type": "uint256"
        }
      ],
      "stateMutability": "view",
      "type": "function"
    },
    {
      "inputs": [
        {
          "internalType": "uint256",
          "name": "_amount",
          "type": "uint256"
        }
      ],
      "name": "openPosition",
      "outputs": [],
      "stateMutability": "nonpayable",
      "type": "function"
    },
    {
      "inputs": [],
      "name": "poolFee",
      "outputs": [
        {
          "internalType": "uint24",
          "name": "",
          "type": "uint24"
        }
      ],
      "stateMutability": "view",
      "type": "function"
    },
    {
      "inputs": [],
      "name": "swapRouter",
      "outputs": [
        {
          "internalType": "contract ISwapRouter",
          "name": "",
          "type": "address"
        }
      ],
      "stateMutability": "view",
      "type": "function"
    },
    {
      "inputs": [
        {
          "internalType": "uint256",
          "name": "amountIn",
          "type": "uint256"
        }
      ],
      "name": "swapWEthToWstEth",
      "outputs": [
        {
          "internalType": "uint256",
          "name": "amountOut",
          "type": "uint256"
        }
      ],
      "stateMutability": "nonpayable",
      "type": "function"
    },
    {
      "inputs": [],
      "name": "uniswapSwapRouterAddress",
      "outputs": [
        {
          "internalType": "address",
          "name": "",
          "type": "address"
        }
      ],
      "stateMutability": "view",
      "type": "function"
    },
    {
      "inputs": [],
      "name": "wEthToken",
      "outputs": [
        {
          "internalType": "contract IERC20",
          "name": "",
          "type": "address"
        }
      ],
      "stateMutability": "view",
      "type": "function"
    },
    {
      "inputs": [
        {
          "internalType": "address",
          "name": "_tokenAddress",
          "type": "address"
        }
      ],
      "name": "withdraw",
      "outputs": [],
      "stateMutability": "nonpayable",
      "type": "function"
    },
    {
      "inputs": [],
      "name": "wstEthToken",
      "outputs": [
        {
          "internalType": "contract IERC20",
          "name": "",
          "type": "address"
        }
      ],
      "stateMutability": "view",
      "type": "function"
    },
    {
      "stateMutability": "payable",
      "type": "receive"
    }
  ],
  "bytecode": "0x60e060405273e592427a0aece92de3edee1f18e0157c0586156473ffffffffffffffffffffffffffffffffffffffff1660c09073ffffffffffffffffffffffffffffffffffffffff1681525073c02aaa39b223fe8d0a0e5c4f27ead9083c756cc2600160006101000a81548173ffffffffffffffffffffffffffffffffffffffff021916908373ffffffffffffffffffffffffffffffffffffffff160217905550737f39c581f595b53c5cb19bd0b3f8da6c935e2ca0600260006101000a81548173ffffffffffffffffffffffffffffffffffffffff021916908373ffffffffffffffffffffffffffffffffffffffff1602179055503480156200010257600080fd5b5060405162001d3838038062001d388339818101604052810190620001289190620002b4565b808073ffffffffffffffffffffffffffffffffffffffff1660808173ffffffffffffffffffffffffffffffffffffffff16815250508073ffffffffffffffffffffffffffffffffffffffff1663026b1d5f6040518163ffffffff1660e01b8152600401602060405180830381865afa158015620001a9573d6000803e3d6000fd5b505050506040513d601f19601f82011682018060405250810190620001cf9190620002b4565b73ffffffffffffffffffffffffffffffffffffffff1660a08173ffffffffffffffffffffffffffffffffffffffff168152505050336000806101000a81548173ffffffffffffffffffffffffffffffffffffffff021916908373ffffffffffffffffffffffffffffffffffffffff16021790555050620002e6565b600080fd5b600073ffffffffffffffffffffffffffffffffffffffff82169050919050565b60006200027c826200024f565b9050919050565b6200028e816200026f565b81146200029a57600080fd5b50565b600081519050620002ae8162000283565b92915050565b600060208284031215620002cd57620002cc6200024a565b5b6000620002dd848285016200029d565b91505092915050565b60805160a05160c0516119ea6200034e60003960008181610ae601528181610c3001528181610cd401528181610dbb0152610f160152600081816103d20152818161046201528181610520015281816108d501526109cd0152600061037b01526119ea6000f3fe6080604052600436106100e15760003560e01c806399ff82031161007f578063a578b55311610059578063a578b553146102a9578063c31c9c07146102e6578063f8b2cb4f14610311578063ff760f161461034e576100e8565b806399ff82031461022a5780639cb90b19146102535780639e4aa47f1461027e576100e8565b80633580b13b116100bb5780633580b13b1461018057806351cff8d9146101ab5780637535d246146101d457806379c5c7eb146101ff576100e8565b80630542975c146100ed578063089fe6aa146101185780631b11d0ff14610143576100e8565b366100e857005b600080fd5b3480156100f957600080fd5b50610102610379565b60405161010f9190611035565b60405180910390f35b34801561012457600080fd5b5061012d61039d565b60405161013a919061106e565b60405180910390f35b34801561014f57600080fd5b5061016a6004803603810190610165919061116c565b6103a3565b6040516101779190611221565b60405180910390f35b34801561018c57600080fd5b5061019561071e565b6040516101a2919061125d565b60405180910390f35b3480156101b757600080fd5b506101d260048036038101906101cd9190611278565b610744565b005b3480156101e057600080fd5b506101e96108d3565b6040516101f691906112c6565b60405180910390f35b34801561020b57600080fd5b506102146108f7565b60405161022191906112f0565b60405180910390f35b34801561023657600080fd5b50610251600480360381019061024c919061130b565b6108fd565b005b34801561025f57600080fd5b50610268610a66565b604051610275919061125d565b60405180910390f35b34801561028a57600080fd5b50610293610a8c565b6040516102a09190611347565b60405180910390f35b3480156102b557600080fd5b506102d060048036038101906102cb919061130b565b610aa4565b6040516102dd91906112f0565b60405180910390f35b3480156102f257600080fd5b506102fb610cd2565b6040516103089190611383565b60405180910390f35b34801561031d57600080fd5b5061033860048036038101906103339190611278565b610cf6565b60405161034591906112f0565b60405180910390f35b34801561035a57600080fd5b50610363610d79565b60405161037091906112f0565b60405180910390f35b7f000000000000000000000000000000000000000000000000000000000000000081565b610bb881565b60008085876103b291906113cd565b90508773ffffffffffffffffffffffffffffffffffffffff1663095ea7b37f00000000000000000000000000000000000000000000000000000000000000006103e7846103ff9190611423565b6040518363ffffffff1660e01b815260040161041c92919061147d565b6020604051808303816000875af115801561043b573d6000803e3d6000fd5b505050506040513d601f19601f8201168201806040525081019061045f91906114d2565b507f000000000000000000000000000000000000000000000000000000000000000073ffffffffffffffffffffffffffffffffffffffff1663617ba0378960028a6104aa919061152e565b60008054906101000a900473ffffffffffffffffffffffffffffffffffffffff1660006040518563ffffffff1660e01b81526004016104ec94939291906115c9565b600060405180830381600087803b15801561050657600080fd5b505af115801561051a573d6000803e3d6000fd5b505050507f000000000000000000000000000000000000000000000000000000000000000073ffffffffffffffffffffffffffffffffffffffff1663a415bcad73c02aaa39b223fe8d0a0e5c4f27ead9083c756cc26064600a8b61057e9190611423565b610588919061152e565b600260008060009054906101000a900473ffffffffffffffffffffffffffffffffffffffff166040518663ffffffff1660e01b81526004016105ce959493929190611649565b600060405180830381600087803b1580156105e857600080fd5b505af11580156105fc573d6000803e3d6000fd5b505050503073ffffffffffffffffffffffffffffffffffffffff1663a578b55373c02aaa39b223fe8d0a0e5c4f27ead9083c756cc273ffffffffffffffffffffffffffffffffffffffff166370a08231306040518263ffffffff1660e01b81526004016106699190611347565b602060405180830381865afa158015610686573d6000803e3d6000fd5b505050506040513d601f19601f820116820180604052508101906106aa91906116b1565b6040518263ffffffff1660e01b81526004016106c691906112f0565b6020604051808303816000875af11580156106e5573d6000803e3d6000fd5b505050506040513d601f19601f8201168201806040525081019061070991906116b1565b60038190555060019150509695505050505050565b600160009054906101000a900473ffffffffffffffffffffffffffffffffffffffff1681565b60008054906101000a900473ffffffffffffffffffffffffffffffffffffffff1673ffffffffffffffffffffffffffffffffffffffff163373ffffffffffffffffffffffffffffffffffffffff16146107d2576040517f08c379a00000000000000000000000000000000000000000000000000000000081526004016107c990611761565b60405180910390fd5b60008190508073ffffffffffffffffffffffffffffffffffffffff1663a9059cbb338373ffffffffffffffffffffffffffffffffffffffff166370a08231306040518263ffffffff1660e01b815260040161082d9190611347565b602060405180830381865afa15801561084a573d6000803e3d6000fd5b505050506040513d601f19601f8201168201806040525081019061086e91906116b1565b6040518363ffffffff1660e01b815260040161088b92919061147d565b6020604051808303816000875af11580156108aa573d6000803e3d6000fd5b505050506040513d601f19601f820116820180604052508101906108ce91906114d2565b505050565b7f000000000000000000000000000000000000000000000000000000000000000081565b60035481565b737f39c581f595b53c5cb19bd0b3f8da6c935e2ca073ffffffffffffffffffffffffffffffffffffffff166323b872dd3330846040518463ffffffff1660e01b815260040161094e93929190611781565b6020604051808303816000875af115801561096d573d6000803e3d6000fd5b505050506040513d601f19601f8201168201806040525081019061099191906114d2565b5060003090506000737f39c581f595b53c5cb19bd0b3f8da6c935e2ca090506000839050600060405180602001604052806000815250905060007f000000000000000000000000000000000000000000000000000000000000000073ffffffffffffffffffffffffffffffffffffffff166342b0b77c86868686866040518663ffffffff1660e01b8152600401610a2c959493929190611860565b600060405180830381600087803b158015610a4657600080fd5b505af1158015610a5a573d6000803e3d6000fd5b50505050505050505050565b600260009054906101000a900473ffffffffffffffffffffffffffffffffffffffff1681565b73e592427a0aece92de3edee1f18e0157c0586156481565b6000600160009054906101000a900473ffffffffffffffffffffffffffffffffffffffff1673ffffffffffffffffffffffffffffffffffffffff1663095ea7b37f0000000000000000000000000000000000000000000000000000000000000000846040518363ffffffff1660e01b8152600401610b2392919061147d565b6020604051808303816000875af1158015610b42573d6000803e3d6000fd5b505050506040513d601f19601f82011682018060405250810190610b6691906114d2565b50600060405180610100016040528073c02aaa39b223fe8d0a0e5c4f27ead9083c756cc273ffffffffffffffffffffffffffffffffffffffff168152602001737f39c581f595b53c5cb19bd0b3f8da6c935e2ca073ffffffffffffffffffffffffffffffffffffffff168152602001610bb862ffffff1681526020013073ffffffffffffffffffffffffffffffffffffffff16815260200142815260200184815260200160008152602001600073ffffffffffffffffffffffffffffffffffffffff1681525090507f000000000000000000000000000000000000000000000000000000000000000073ffffffffffffffffffffffffffffffffffffffff1663414bf389826040518263ffffffff1660e01b8152600401610c879190611998565b6020604051808303816000875af1158015610ca6573d6000803e3d6000fd5b505050506040513d601f19601f82011682018060405250810190610cca91906116b1565b915050919050565b7f000000000000000000000000000000000000000000000000000000000000000081565b60008173ffffffffffffffffffffffffffffffffffffffff166370a08231306040518263ffffffff1660e01b8152600401610d319190611347565b602060405180830381865afa158015610d4e573d6000803e3d6000fd5b505050506040513d601f19601f82011682018060405250810190610d7291906116b1565b9050919050565b6000600260009054906101000a900473ffffffffffffffffffffffffffffffffffffffff1673ffffffffffffffffffffffffffffffffffffffff1663095ea7b37f00000000000000000000000000000000000000000000000000000000000000006103e7600354610dea9190611423565b6040518363ffffffff1660e01b8152600401610e0792919061147d565b6020604051808303816000875af1158015610e26573d6000803e3d6000fd5b505050506040513d601f19601f82011682018060405250810190610e4a91906114d2565b506000604051806101000160405280737f39c581f595b53c5cb19bd0b3f8da6c935e2ca073ffffffffffffffffffffffffffffffffffffffff16815260200173c02aaa39b223fe8d0a0e5c4f27ead9083c756cc273ffffffffffffffffffffffffffffffffffffffff168152602001610bb862ffffff1681526020013073ffffffffffffffffffffffffffffffffffffffff168152602001428152602001600354815260200160008152602001600073ffffffffffffffffffffffffffffffffffffffff1681525090507f000000000000000000000000000000000000000000000000000000000000000073ffffffffffffffffffffffffffffffffffffffff1663414bf389826040518263ffffffff1660e01b8152600401610f6d9190611998565b6020604051808303816000875af1158015610f8c573d6000803e3d6000fd5b505050506040513d601f19601f82011682018060405250810190610fb091906116b1565b91505090565b600073ffffffffffffffffffffffffffffffffffffffff82169050919050565b6000819050919050565b6000610ffb610ff6610ff184610fb6565b610fd6565b610fb6565b9050919050565b600061100d82610fe0565b9050919050565b600061101f82611002565b9050919050565b61102f81611014565b82525050565b600060208201905061104a6000830184611026565b92915050565b600062ffffff82169050919050565b61106881611050565b82525050565b6000602082019050611083600083018461105f565b92915050565b600080fd5b600080fd5b600061109e82610fb6565b9050919050565b6110ae81611093565b81146110b957600080fd5b50565b6000813590506110cb816110a5565b92915050565b6000819050919050565b6110e4816110d1565b81146110ef57600080fd5b50565b600081359050611101816110db565b92915050565b600080fd5b600080fd5b600080fd5b60008083601f84011261112c5761112b611107565b5b8235905067ffffffffffffffff8111156111495761114861110c565b5b60208301915083600182028301111561116557611164611111565b5b9250929050565b60008060008060008060a0878903121561118957611188611089565b5b600061119789828a016110bc565b96505060206111a889828a016110f2565b95505060406111b989828a016110f2565b94505060606111ca89828a016110bc565b935050608087013567ffffffffffffffff8111156111eb576111ea61108e565b5b6111f789828a01611116565b92509250509295509295509295565b60008115159050919050565b61121b81611206565b82525050565b60006020820190506112366000830184611212565b92915050565b600061124782611002565b9050919050565b6112578161123c565b82525050565b6000602082019050611272600083018461124e565b92915050565b60006020828403121561128e5761128d611089565b5b600061129c848285016110bc565b91505092915050565b60006112b082611002565b9050919050565b6112c0816112a5565b82525050565b60006020820190506112db60008301846112b7565b92915050565b6112ea816110d1565b82525050565b600060208201905061130560008301846112e1565b92915050565b60006020828403121561132157611320611089565b5b600061132f848285016110f2565b91505092915050565b61134181611093565b82525050565b600060208201905061135c6000830184611338565b92915050565b600061136d82611002565b9050919050565b61137d81611362565b82525050565b60006020820190506113986000830184611374565b92915050565b7f4e487b7100000000000000000000000000000000000000000000000000000000600052601160045260246000fd5b60006113d8826110d1565b91506113e3836110d1565b9250827fffffffffffffffffffffffffffffffffffffffffffffffffffffffffffffffff038211156114185761141761139e565b5b828201905092915050565b600061142e826110d1565b9150611439836110d1565b9250817fffffffffffffffffffffffffffffffffffffffffffffffffffffffffffffffff04831182151516156114725761147161139e565b5b828202905092915050565b60006040820190506114926000830185611338565b61149f60208301846112e1565b9392505050565b6114af81611206565b81146114ba57600080fd5b50565b6000815190506114cc816114a6565b92915050565b6000602082840312156114e8576114e7611089565b5b60006114f6848285016114bd565b91505092915050565b7f4e487b7100000000000000000000000000000000000000000000000000000000600052601260045260246000fd5b6000611539826110d1565b9150611544836110d1565b925082611554576115536114ff565b5b828204905092915050565b600061156a82611002565b9050919050565b61157a8161155f565b82525050565b6000819050919050565b600061ffff82169050919050565b60006115b36115ae6115a984611580565b610fd6565b61158a565b9050919050565b6115c381611598565b82525050565b60006080820190506115de6000830187611338565b6115eb60208301866112e1565b6115f86040830185611571565b61160560608301846115ba565b95945050505050565b6000819050919050565b600061163361162e6116298461160e565b610fd6565b6110d1565b9050919050565b61164381611618565b82525050565b600060a08201905061165e6000830188611338565b61166b60208301876112e1565b611678604083018661163a565b61168560608301856115ba565b6116926080830184611571565b9695505050505050565b6000815190506116ab816110db565b92915050565b6000602082840312156116c7576116c6611089565b5b60006116d58482850161169c565b91505092915050565b600082825260208201905092915050565b7f4f6e6c792074686520636f6e7472616374206f776e65722063616e2063616c6c60008201527f20746869732066756e6374696f6e000000000000000000000000000000000000602082015250565b600061174b602e836116de565b9150611756826116ef565b604082019050919050565b6000602082019050818103600083015261177a8161173e565b9050919050565b60006060820190506117966000830186611338565b6117a36020830185611338565b6117b060408301846112e1565b949350505050565b600081519050919050565b600082825260208201905092915050565b60005b838110156117f25780820151818401526020810190506117d7565b83811115611801576000848401525b50505050565b6000601f19601f8301169050919050565b6000611823826117b8565b61182d81856117c3565b935061183d8185602086016117d4565b61184681611807565b840191505092915050565b61185a8161158a565b82525050565b600060a0820190506118756000830188611338565b6118826020830187611338565b61188f60408301866112e1565b81810360608301526118a18185611818565b90506118b06080830184611851565b9695505050505050565b6118c381611093565b82525050565b6118d281611050565b82525050565b6118e1816110d1565b82525050565b6118f081610fb6565b82525050565b6101008201600082015161190d60008501826118ba565b50602082015161192060208501826118ba565b50604082015161193360408501826118c9565b50606082015161194660608501826118ba565b50608082015161195960808501826118d8565b5060a082015161196c60a08501826118d8565b5060c082015161197f60c08501826118d8565b5060e082015161199260e08501826118e7565b50505050565b6000610100820190506119ae60008301846118f6565b9291505056fea26469706673582212201a36a46d4f6607f98b16c37ac429afe496a3354c23118cbf290308ed09b6cfa764736f6c634300080a0033",
  "linkReferences": {},
  "deployedLinkReferences": {}
}